:100000000C9441000C945E000C945E000C945E0015
:100010000C945E000C945E000C945E000C945E00E8
:100020000C945E000C94C4000C945E000C945E0072
:100030000C945E000C94B5000C945E000C945E0071
:100040000C94B0000C945E000C946B000C945E0059
:100050000C945E000C94A0000C945E000C945E0066
:100060000C945E000C945E006E616E00696E66001A
:100070006364696E6F70737578585B656667454633
:10008000470011241FBECFEFD8E0DEBFCDBF15E083
:10009000A0E0B1E0EAE6F0E302C005900D92AA37D5
:1000A000B107D9F728E0AAE7B5E001C01D92AE3547
:1000B000B207E1F70E94E0130C947B170C94000048
:1000C0008AB1806E8AB9549A399A84B18E6084B9A3
:1000D0000895789408950F920FB60F921F921124ED
:1000E0005F936F937F938F939F93AF93BF93EF93A0
:1000F000FF938091C600E091F307F091F407E95374
:10010000F94F80838091F3079091F40701966CE298
:1001100071E00E94F5139093F4078093F30781E058
:100120008093F507FF91EF91BF91AF919F918F91D0
:100130007F916F915F911F900F900FBE0F90189558
:100140008F939F93809178009091790090935D08B0
:1001500080935C0881E080935B089F918F91189554
:100160008F9380E886BD8F9118951F921FB61F92BE
:1001700011248F9380E880938400109285008F91E2
:100180001F901FBE1F9018958F9380E88093B20038
:100190008F9118955B9880EA8A95F1F75B9A8AE1CE
:1001A0008A95F1F700C008951092F6071092F507AE
:1001B0001092F4071092F3070895E091F307F0917D
:1001C000F407E953F94F80838091F3079091F40786
:1001D00001969093F4078093F3070895F8945B9841
:1001E0008AE08A95F1F700C05B9A78940895EF92BF
:1001F000FF920F931F93CF93DF93062F10E0C0E081
:10020000D0E0E82EF12CC017D10739F4DF91CF915F
:100210001F910F91FF90EF900895C7010C2E02C01F
:10022000959587950A94E2F780FF05C05A9A0E9437
:10023000EE002196E8CF5A98FACF68E00C94F700C8
:100240008150990B880F880F880F65E082600C94AD
:10025000F70063E086E00C94F7000F931F93CF93B1
:10026000DF93182F282F2150330BD1E001C0DD0F71
:100270002A95EAF752985A9800E0C0E0011307C0A7
:10028000529A8C2FDF91CF911F910F9108950E9468
:10029000EE00C6954A99CD2B0F5FF0CF63E084E066
:1002A0000C94F700815065E0880F880F880F0C943C
:1002B000F7000F931F93CF93DF938C01C0E0D0E042
:1002C00081E00E942D01811108C0C0368AEED80756
:1002D00011F481E00BC02196F3CFC036DA4EC9F39A
:1002E00088E00E942D01F801808380E0DF91CF91AA
:1002F0001F910F9108958091F60708950E94600064
:100300000E946A0A8CE191E00C94BC0A61E080E0F2
:100310000C94F700CF93DF93C82F81E00E94200157
:100320008C2F0E941D01C0E0D0E081E00E942D01D1
:10033000811108C0C0368AEED80711F481E008C0E8
:100340002196F3CFC036DA4EC9F30E94860180E0D1
:10035000DF91CF910895CF93C82F0E9429018C2F50
:100360000E941D01CF910C9486010E94CA0082E078
:100370000E94AB0182E00E948A0184E00E948A010F
:1003800081E00E948A0190EA9A95F1F70895CF934F
:10039000C62F0E94AB018C2F0E948A01982F81E00A
:1003A000911101C080E0CF910895CF93DF93D82FB2
:1003B000C92F81E00E9452018D2F9C2F0E9459016C
:1003C000C82F811106C00E9486018C2FDF91CF912A
:1003D00008950E948601C1E0F8CF80E00E94AB0141
:1003E00088E995E00E94D50181E00E94AB0189E98E
:1003F00095E00C94D5010C94860188E00C942D01B5
:10040000CF930E944E010E94FD01C82F0E948601D9
:100410008C2FCF9108950C9400021F93CF93DF93FC
:10042000182FC0E0D0E00E940002219681238111A4
:1004300004C0C03787E1D807B1F781E0C037D741A2
:1004400009F080E0DF91CF911F9108951F93CF9322
:10045000DF93182FC0E0D0E00E9400022196812394
:10046000811521F0C03787E1D807B1F781E0C037A7
:10047000D74109F080E0DF91CF911F910895CF938C
:10048000DF930F92CDB7DEB784EB0E94AB0183E020
:100490000E948A0182E00E94260281E00E940D02F1
:1004A0001982CE0101960E94D501811529F081E0C3
:1004B0000F90DF91CF91089587EF97E00E94BC0ADB
:1004C00089818D30A1F78EED0E948A0182E00E9421
:1004D00026028DEA0E948A0182E00E94260285EAB5
:1004E0000E948A0182E00E94260281E00E940D02A1
:1004F000CE0101960E94D5018111D9CF81E0998169
:100500009D30B1F680E0D4CFAF92BF92CF92DF9210
:10051000EF92FF920F931F93CF93DF930F92CDB77C
:10052000DEB7182F092F6B01E42E84EB0E94AB017C
:1005300086E00E948A01811579F0FF24F3948F2DC3
:100540000F90DF91CF911F910F91FF90EF90DF906F
:10055000CF90BF90AF90089582E00E942602811153
:10056000ECCF81E00E940D028111E7CFCE01019610
:100570005C010E94D5018111E0CF89818D30E9F6BF
:10058000802F0E948A018111D8CF82E00E9426022A
:100590008111D3CF812F0E948A018111CECF82E0B9
:1005A0000E9426028111C9CF8E2D0E948A018111DD
:1005B000C4CF82E00E9426028111BFCF81E00E9459
:1005C0000D028111BACF8A2D9B2D0E94D501F82EE4
:1005D0008111B3CF8601CE0CD11C0C151D0509F479
:1005E000AECF81E00E940D028111A7CFC8010E9409
:1005F000D5010F5F1F4F811581F39FCFCF93DF93FD
:100600000F92CDB7DEB76EE271E087EF97E00E9400
:100610003F1687EF97E00E94BC0A84EB0E94AB0173
:1006200088E00E948A0182E00E94260281E00E9406
:100630000D021982CE0101960E94D501811529F083
:1006400081E00F90DF91CF91089589818D30C1F7BE
:100650000E948A0182E00E94260281E00E940D022F
:10066000CE0101960E94D5018111EACF89818D309A
:1006700039F780E00E948A0182E00E94260281E030
:100680000E940D02CE0101960E94D5018111D8CFA2
:1006900081E099819D30A9F680E0D3CF1F926F93BE
:1006A0001F928F9388E391E09F938F9387EF97E05A
:1006B0009F938F930E94C21687EF97E00E94BC0A17
:1006C0008DB79EB708960FB6F8949EBF0FBE8DBF2C
:1006D0000895AF92BF92CF92DF92EF92FF920F9365
:1006E0001F93CF93DF930F92CDB7DEB7F82E162F5F
:1006F0006A01022F1F926F931F928F9388E691E0F9
:100700009F938F9387EF97E09F938F930E94C216DA
:1007100087EF97E00E94BC0A84EB0E94AB0187E060
:100720000E948A010FB6F894DEBF0FBECDBF8115BF
:1007300069F081E00F90DF91CF911F910F91FF90B1
:10074000EF90DF90CF90BF90AF90089582E00E942D
:1007500026028111EECF81E00E940D028111E9CFC6
:10076000CE0101965C010E94D5018111E2CF898101
:100770008D30F9F68F2D0E948A018111DACF82E047
:100780000E9426028111D5CF812F0E948A018111FA
:10079000D0CF82E00E9426028111CBCF802F0E9411
:1007A0008A018111C6CF82E00E9426028111C1CF49
:1007B00076010C0D1D2D111DE016F10689F481E066
:1007C0000E940D028111B5CFC5010E94D501811192
:1007D000B0CF81E099819D3009F0ACCF80E0AACF05
:1007E000F70181917F010E948A018111A2CF82E0ED
:1007F0000E942602811501F39CCF4F925F926F9267
:100800007F928F929F92AF92BF92CF92DF92EF92A0
:10081000FF920F931F93CF93DF93CDB7DEB7E4978B
:100820000FB6F894DEBF0FBECDBF8DE0EFECF1E068
:10083000DE015B9601900D928A95E1F78AE1E0E096
:10084000F1E0DE01119601900D928A95E1F780E9C1
:1008500091E00E94BC0A5E018BE1A80EB11C7E01F2
:1008600098E2E90EF11C8E010F5F1F4F27018DEBFF
:10087000682E81E0782E97EFC92E97E0D92E2DEAC9
:10088000822E21E0922EF50181915F010E94AB0141
:10089000C7010E94D50181113FC0F70180811F92DD
:1008A0008F931F928F93F80181818F9380818F9313
:1008B0009F928F92DF92CF920E94C21687EF97E0AD
:1008C0000E94BC0A0FB6F894DEBF0FBECDBF8FE307
:1008D0009CE90197F1F700C000009FEFE91AF90ABF
:1008E0000E5F1F4FA414B50471F6E4960FB6F8948A
:1008F000DEBF0FBECDBFDF91CF911F910F91FF9053
:10090000EF90DF90CF90BF90AF909F908F907F90AF
:100910006F905F904F900895F80181818F9380814F
:100920008F937F926F92DF92CF920E94C21687EFD1
:1009300097E00E94BC0A0F900F900F900F900F90BD
:100940000F90C5CFCF93DF9300D0CDB7DEB78EE940
:1009500092E00E94BC0A0E94D40070E5C72E73EC9E
:10096000D72EEFE3EE2EF4E62F2E312C0EE015E01D
:10097000A5E07A2EB4E34B2EB3E05B2EC114D10474
:1009800009F446C021E0C21AD10809F041C097B568
:1009900080917D05891708F049C087B5815087BDD2
:1009A000209188003091890040917C05842F90E04F
:1009B0004217130608F041C0809188009091890089
:1009C0000197909389008093880020918A0030914C
:1009D0008B0040917B05842F90E042171306D0F5E1
:1009E00080918A0090918B00019790938B00809367
:1009F0008A009091B30080917A058917C0F58091A3
:100A0000B30081508093B30060E5C62E63ECD62E10
:100A10008091F507811509F4B1CFE091C706ED315A
:100A200070F5F0E0E85EF74E0C941D1497B598173A
:100A300008F0B6CF87B58F5FB2CF20918800309194
:100A400089002817390708F680918800909189005D
:100A50000196B7CF20918A0030918B002817390773
:100A600040F680918A0090918B000196BECF9091C4
:100A7000B300981748F68091B3008F5FC3CFE23E72
:100A800009F4CBC360F4E03E09F4FDC3E13E09F490
:100A9000ACC3E13C09F472C481E795E011C3E43EC4
:100AA00009F4E1C3EF3F09F4E7C4E33EA9F787E2A5
:100AB00095E00E94BC0A8091C806E89EC0011124FE
:100AC000B1010E940914625C60937B051F926F93D1
:100AD0001F930F9387EF97E09F938F93B5C35C9815
:100AE0005D988AEA92E00E94BC0A80E8F9C15C9AAB
:100AF0005D9889EB92E0F7CF5C985D9A88EC92E084
:100B0000F2CF5C9A5D9A87ED92E0EDCF5F9A86EE28
:100B100092E0E9CF10928E055F9887EF92E0E3CFE5
:100B2000419A89E093E0DFCF419810928E0584E1ED
:100B300093E0D9CF80917C00887F80937C0080E215
:100B400093E00E94BC0A80E80E94D70A10928205B6
:100B500010928305109284051092850510927E05EF
:100B600010927F05109280051092810580917A0085
:100B7000806480937A0080915B088115E1F3109284
:100B80005B0880915C0890915D08789EB001799E29
:100B9000700D112480E090E00E94E51220E030EC1E
:100BA0004FE754E40E94C714B62FA72F462F572FA4
:100BB000682F792F409382055093830560938405B5
:100BC0007093850520E030E040E251E46B2F7A2FEE
:100BD0000E9422132FE832EC45E75CE30E94C71421
:100BE0009B01AC01CB01DA0180937E0590937F05D8
:100BF000A0938005B09381055F934F933F932F930C
:100C00005F924F9287EF97E09F938F930E94C21657
:100C100087EF97E00E94BC0A8091850587FB8827B3
:100C200080F90E94D70A90918405991F9927991FEE
:100C300080918505880F892B0E94D70A80918405B1
:100C40008F770E94D70A809183050E94D70A8091EE
:100C500082050E94D70A8091810587FB882780F949
:100C60000E94D70A90918005991F9927991F80911A
:100C70008105880F892B0E94D70A809180058F7784
:100C80000E94D70A80917F050E94D70A80917E0535
:100C90000E94D70A0E94D4000FB6F894DEBF0FBEA0
:100CA000CDBF6CCE80917C00887F836080937C0078
:100CB0008BE393E00E94BC0A80E80E94D70A10925E
:100CC0008A0510928B0510928C0510928D0510925A
:100CD00086051092870510928805109289058091EB
:100CE0007A00806480937A0080915B088115E1F33B
:100CF00010925B0880915C0890915D08789EB0012D
:100D0000799E700D112480E090E00E94E51220E0B1
:100D100030EC4FE754E40E94C71423E333E343E18C
:100D200051E40E942213962EA72EB82EF92E862F5C
:100D30009A2DAB2DBF2D80938A0590938B05A093A0
:100D40008C05B0938D05292D3A2D4B2D5F2D60E03C
:100D500070E080EC91E40E945A1420E030E040E71B
:100D600053E40E94C71469837A83682E892E20E099
:100D700030EB43EB57E4692D7A2D8B2D9F2D0E948C
:100D8000C7149B01AC0169817A81862D982D0E9440
:100D90005A149B01AC01CB01DA0180938605909334
:100DA0008705A0938805B09389055F934F933F9380
:100DB0002F935F924F9287EF97E09F938F930E94BC
:100DC000C21687EF97E00E94BC0A80918D0587FBD1
:100DD000882780F90E94D70A90918C05991F99273E
:100DE000991F80918D05880F892B0E94D70A8091C9
:100DF0008C058F770E94D70A80918B050E94D70AB5
:100E000080918A050E94D70A8091890587FB8827EF
:100E100080F90E94D70A90918805991F9927991FF8
:100E200080918905880F892B0E94D70A80918805B7
:100E30008F770E94D70A809187050E94D70A8091F8
:100E4000860526CF8BE493E04ECE8FE493E00E949C
:100E5000BC0A529A539A0E94B501811531F084E57B
:100E600093E00E94BC0A83E43BC00E94ED018091A4
:100E700098051F928F9381E693E09F938F9357EF8E
:100E8000A52E57E0B52EBF92AF920E94C216C501A3
:100E90000E94BC0A809199051F928F9382E793E08C
:100EA0009F938F93BF92AF920E94C216C5010E947A
:100EB000BC0A809198058D7F0FB6F894DEBF0FBEF7
:100EC000CDBF803361F460E88FEF0E94C701FAE183
:100ED000FA95F1F700C062E08FEE0E94C70181E849
:100EE0000E94D70A1BC189E893E00E94BC0A0E94B5
:100EF000CA000E94D40082E80E94D70A3FCD8FE842
:100F000093E00E94BC0A8091C8062091F3073091BB
:100F1000F4078150990B82179307A8F7A090CB068E
:100F20009090CC06B090CD06F090CC068091CB0688
:100F3000F80EEBE9F5E080E090E02091C906821719
:100F4000910508F180E09091C906891718F11F9268
:100F5000FF921F92BF9225E933E03F932F93E7EF73
:100F6000F7E0FF93EF930E94C21687EF97E00E948D
:100F7000BC0A0FB6F894DEBF0FBECDBFFB1491F0D4
:100F80008BEA93E06ECFDC01A253B94F2C912193F1
:100F90000196D3CFE82FF0E0E556FA4F9081F90E95
:100FA0008F5FD1CF2091C9064BE955E0692D8A2D7D
:100FB0000E946903811531F081EC93E00E94BC0A24
:100FC00084E48ECF89ED93E00E94BC0A83E888CF49
:100FD0008DEE93E00E94BC0A0E94FE02811519F07A
:100FE00088EF93E0EBCF8AE094E0EECF8CE194E0E1
:100FF0000E94BC0A8091C8062091F3073091F40743
:101000008150990B82179307A8F7A090CB06909078
:10101000CC06F090CC068091CB06F80EB090CD06B1
:10102000EBE9F5E080E090E02091C9068217910598
:1010300058F180E09091C906891768F11F92FF92DC
:101040001F92BF92E5E9F3E0FF93EF9387EF97E0FC
:101050009F938F930E94C21687EF97E00E94BC0A6D
:101060000FB6F894DEBF0FBECDBFFB1089CF209125
:10107000C9064BE955E0692D8A2D0E946903811547
:1010800091F087E294E09ACFDC01A253B94F2C9102
:1010900021930196C9CFE82FF0E0E556FA4F9081F1
:1010A000F90E8F5FC7CF87E494E08ECF87E694E098
:1010B0000E94BC0A0E943F02811529F08DE694E04F
:1010C0000E94BC0A2BC08CE794E00E94BC0A0E94DC
:1010D000D40084E811CF8BE894E00E94BC0AF09021
:1010E000C9068091CB068091CC068091CA0680917A
:1010F000CB06A090CC06B82E4F2D6BE975E0C5014C
:101100000E948402811569F080E994E00E94BC0A83
:1011100088E40E949D0A88E40E949D0A0E94D400EF
:101120002DCCBF92AF9287EA94E09F938F9387EF85
:1011300097E09F938F930E94C21687EF97E00E94DB
:10114000BC0A80EC0E949D0A80EC0E949D0A4BE93B
:10115000842E45E0942E0F900F900F900F900F90DB
:101160000F9054018A2D88198F1540F089EC94E076
:101170000E94AB0A0E94D40085E8BECEF5018191A1
:101180005F010E949D0AEECF8CEC94E00E94BC0AA5
:10119000809198051F928F9321ED34E03F932F9318
:1011A000E7EFF7E0FF93EF930E94C21687EF97E017
:1011B0000E94BC0A809199051F928F9380EE94E063
:1011C0009F938F9327EF37E03F932F930E94C21690
:1011D00087EF97E00E94BC0A88E85ACD85EF94E03B
:1011E0000E94BC0A0E94FD0399CF81E095E00E9415
:1011F000BC0A8091C806E89EC0011124B1010E947A
:101200000914625C60937D051F926F931F930F9387
:1012100027EF37E03F932F9317C08AE195E00E94B4
:10122000BC0A8091C806E89EC0011124B1010E9449
:101230000914625C60937C051F926F931F930F9358
:10124000E7EFF7E0FF93EF930E94C21687EF97E076
:101250000E94BC0A0E94D4000F900F900F900F9034
:101260000F900F908BCB84E395E00E94BC0A809195
:10127000C806E89EC0011124B1010E940914625CF5
:1012800060937A05C1CF81E495E00E94BC0A809109
:101290008E05811170C081E080938E051F928DE7CD
:1012A000F82EFF929EE0892E95E0992E9F928F92C4
:1012B00027EFA22E27E0B22EBF92AF920E94C21655
:1012C000F0927D05F0927C05F0927B05F0927A0514
:1012D000C5010E94BC0AF7BC8DE790E0909389009D
:1012E0008093880090938B0080938A00F092B300E3
:1012F0009FEFE3EDF0E39150E040F040E1F700C0F4
:101300000000419A2FEF33E284EF215030408040BB
:10131000E1F700C000001F923EE3F32EFF929F9280
:101320008F92BF92AF920E94C216C5010E94BC0A62
:10133000F0927D05F0927C05F0927B05F0927A05A3
:10134000F7BC8EE390E0909389008093880090939F
:101350008B0080938A00F092B3009FEFE3E2F4EFFA
:101360009150E040F040E1F700C000000FB6F89463
:10137000DEBF0FBECDBF8DE495E0B5CB80917C0084
:10138000887F80937C0010928205109283051092D2
:1013900084051092850510927E0510927F051092AB
:1013A00080051092810580917A00806480937A0094
:1013B00080915B088115E1F310925B0880915C08D5
:1013C00090915D08789EB001799E700D112480E0A7
:1013D00090E00E94E51220E030EC4FE754E40E94D8
:1013E000C714B62FA72F462F572F682F792F40935A
:1013F000820550938305609384057093850520E0F2
:1014000030E040E251E46B2F7A2F0E9422132AE948
:1014100039E949E15EE30E94C714362FE72F282FF0
:10142000892F432F5E2F622F792F40937E05509393
:101430007F056093800570938105881F8827881F2A
:101440000E949D0A90918005991F9927991F80916C
:101450008105880F892B0E949D0A809180058F77D6
:101460000E949D0A80917F050E949D0A80917E05C1
:101470000E949D0A0E94D40080918A051F928F933A
:1014800080918B051F928F9380918C058F771F928F
:101490008F9390918C05991F9927991F80918D05A5
:1014A000880F892B1F928F9380918D0587FB88274A
:1014B00080F91F928F938EE595E09F938F9327EF8E
:1014C00037E03F932F930E94C21687EF97E00E9468
:1014D000AB0AE0CBCF93DF9324EC30E0E901188234
:1014E00085EC90E0FC01108260EC70E0EB0118826A
:1014F000E1ECF0E01082A2ECB0E01C9243E3E901E1
:101500004883EC011882EB01188278948081886905
:1015100080838C9186608C9380818B7F8083DF9128
:10152000CF9108958091C000807808959091C00077
:1015300095FFFCCF8093C60008959091C00095FF61
:10154000FCCF8093C60008959091C00095FFFCCF1A
:101550008093C6000895CF93DF93EC0189918111A8
:1015600008C08DE00E94960A8AE0DF91CF910C942A
:10157000960A0E94960AF2CFCF93DF93EC018EED8C
:101580000E949D0A8EED0E949D0ADF93CF9387EF04
:1015900097E09F938F930E94C2160F900F900F9029
:1015A0000F9087EF97E0DF91CF910C94AB0ACF9328
:1015B000C82F80EC0E949D0A80EC0E949D0A8C2F0F
:1015C000CF910C949D0A8091C600089580E4809389
:1015D0007C00EAE7F0E08FE8808378948081806483
:1015E00080830895569A14BC15BC83E884BD85B5E4
:1015F000846085BD17BC089584B1866084B9A0E875
:10160000B0E01C92E1E8F0E010828C91816A8C934A
:1016100080818C60808310928900109288001092E3
:101620008B0010928A000895239AA0EBB0E01C92E0
:10163000E1EBF0E010828C9183688C93808186606E
:1016400080831092B3000895ADE0B0E0EAE2FBE0E1
:101650000C9423147C013B015A01FC011782168271
:10166000838181FF5FC3F7012381F30123FD85910E
:1016700023FF81913F01811509F442C0853239F47D
:1016800023FD959123FF91913F01953239F4B701E4
:1016900090E00E94921665015601E5CF30E010E01F
:1016A000912C812CF0E28F1608F03CC09B3279F12E
:1016B00060F4903271F1933291F19E3209F048C09A
:1016C00086FC1EC0689486F806C09D3229F19033CE
:1016D00059F5689480F8F30123FD959123FF9191CA
:1016E0003F019111DFCF082D097F903709F4DCC24B
:1016F00008F0D2C2983509F4D9C29F3609F4DBC28A
:10170000F701868197812D96E2E10C943F1468944D
:1017100081F8689482F8DFCF689483F8DCCF68940E
:1017200084F8D9CF87FC1EC080ED890F8A3028F657
:1017300086FE06C04AE0149F800D1124182FCBCFDF
:101740005AE0959E800D1124982E689485F8C3CF99
:101750009C3619F4689487F8BECF9C3401F1983612
:1017600009F4B9CF3115E9F0892F8F7D8554833085
:1017700008F0A3C1650188E0C80ED11C8FE38983FE
:1017800001E010E0FE0131965F01E89487F883FCE8
:1017900004C00915110508F443C2592C56C231E0A2
:1017A0009ACF8BEB890F833008F041C0689484F89E
:1017B000905E86FE16E0F82DFF738F2E953609F0A9
:1017C0003EC0689486F887FE44C0812F1C3308F021
:1017D0008BE322242394280E27E0F5016191719177
:1017E000819191916F01022DAE014F5F5F4F0E9479
:1017F00039155C01498040FE03C00DE243FE09C07B
:101800000BE281FC06C082FA002700F90295000F66
:10181000007EF42DFC705F2EF115C1F1011185C21F
:1018200024E0512C921608F497C283E083C28BE91E
:10183000890F833008F041C1E89484F8BACF963616
:1018400019F4689487F8BFCF111509F4BCCF115073
:10185000BACF212F183010F027E017E0212CBDCF90
:1018600081108052B70190E00E9492160F5F1F4FC7
:10187000F80184918111F4CF511409F40DCFB7010F
:1018800080E290E00E9492165A94F6CF87FE32C012
:10189000822D8A0D44FE04C09A81913309F481504F
:1018A00022242394181634F4282EF9E08F1710F010
:1018B00088E0282E87FE46C0C501B7FE02C080E042
:1018C00090E0019601110196111531F0212F30E0C1
:1018D0002F5F3F4F820F931F8915910514F4592CE8
:1018E000581A882D8970811137C051102EC00115EA
:1018F000E1F134C086FCDECFE12FF0E01A151B04C5
:101900003CF02CEFA2162FEFB20614F0689487F883
:10191000329641E050E04C0F5D1FE40FF51F01C00F
:101920001150111519F082918033D1F387FE0AC04E
:1019300022242394210EA116B10414F41A19BACF4B
:1019400010E0B8CF85E090E0BDCFB70180E290E035
:101950000E9492165A94C9CF011529F0B701802F21
:1019600090E00E94921683FC02C051103EC087FE98
:1019700056C04501B7FE02C0812C912CC5018819C3
:101980009909E1E0F0E0EC0FFD1FE80FF91FFD877A
:10199000EC879501221931091901012F10E01195E9
:1019A00001951109A814B9043CF12814390424F54F
:1019B000EC85FD858181F1E08F1A91082C853D85AC
:1019C0002F5F3F4F3D872C8780169106BCF0B701F3
:1019D00090E00E9492163FEF8316930619F7B70125
:1019E0008EE290E00E949216DDCFB70180E390E096
:1019F0000E9492165A94B9CF80E3DDCFA814B9049F
:101A000039F49A81963348F4953311F444FE05C0B5
:101A1000B70190E00E9492162FCF81E3F9CF8A811F
:101A2000813311F0E89444F8B70190E00E949216D7
:101A3000111125C085E490E084FC02C085E690E0A9
:101A4000B7010E949216B7FC05C0A114B10471F54C
:101A500044FE2CC0B194A194B1088DE2B70190E08E
:101A60000E94921680E35AE0A516B1040CF5B70166
:101A700090E00E949216B701C501C096CBCFB70186
:101A80008EE290E00E9492161E5F02E0802F0F5FB0
:101A9000E1E0F0E0EC0FFD1FE80FF11D8081B701E0
:101AA00090E00E9492160113F1CFC4CF8BE2D6CF03
:101AB0008F5F4AE0A41AB108D6CF933609F482C0EA
:101AC000933709F48DC0933509F499C0943619F011
:101AD000993609F0C6C0F50187FEBBC061917191CE
:101AE000819191916F01F82DFF768F2E97FF09C09C
:101AF00090958095709561957F4F8F4F9F4F68941B
:101B000087F82AE030E0AE014F5F5F4F5A010E9434
:101B10001A17B82EBA185B2C082D86FE0AC00E7F45
:101B2000B11638F484FE04C082FC02C0082D0E7E7B
:101B3000512E04FFD0C0FE01EB0DF11D80818033DA
:101B400009F0C2C0097E03FD0EC000FFD3C01B2DEB
:101B5000591418F4190D1519592C892D8519951436
:101B600008F480E0580E591408F0C6C09518592C96
:101B700004FFC4C0B70180E390E00E94921602FF08
:101B800009C088E590E001FD02C088E790E0B70158
:101B90000E949216B11608F4BEC0BA940B2D10E044
:101BA0000F5F1F4FCE0101965C01080F191FF8014E
:101BB00082918F01B70190E00E949216A016B106A3
:101BC000B1F75ACE650182E0C80ED11CF5018081C3
:101BD000898301E010E09E012F5F3F4F5901D5CD71
:101BE000F501A190B1906F01612F70E086FC02C0F9
:101BF0006FEF7FEFC5010E9448168C01C6CDF5013D
:101C0000A190B1906F01612F70E086FC02C06FEF70
:101C10007FEFC5010E9434168C01689487F8B7CD18
:101C2000B70180E290E00E9492169A94B2CDF5013D
:101C300087FC859187FE81915F01B70190E00E944A
:101C4000921651105A94015011090115110579F796
:101C500013CE619171916F01072E000C880B990BC7
:101C600042CF082D0F7E2AE030E0953709F03BCDBA
:101C7000F50107FF23C061917191819191916F01ED
:101C8000AE014F5F5F4F5A010E941A17B82EBA1863
:101C9000802EE89487F83FCF983709F031CD04FDC6
:101CA000046020E130E0E4CF0061F9CF84FC0660FD
:101CB00020E132E0DDCF28E030E0DACF61917191B0
:101CC0006F0180E090E0DCCF02FD02C053943BCF77
:101CD0005394539438CF802F8678811509F433CFED
:101CE000F5CFB70180E290E00E949216A394A91468
:101CF000C0F333CFA52CFBCF512C3ACF802F867861
:101D0000811509F447CF80E201FD8BE207FD8DE2EA
:101D1000B70190E03DCFB70180E390E00E949216BA
:101D2000115038CF8FEF9FEFEECCF5E0512C9F167E
:101D300070F084E0592C581A83FC07C0B70180E288
:101D400090E00E9492165A94C9F7011529F0B70144
:101D5000802F90E00E94921608E610E043FC02C03B
:101D60000CE610E0282D2071822E82CDFC01CA01E4
:101D7000DB0120FD08C023FD05C022FF02C0B383A4
:101D8000A283918380830895582F392FCB01A52FEB
:101D9000B32F33E044FD14C034E046FD11C0AC0164
:101DA000BD01DA01FB01AA0FBB1FEE1FFF1F10943C
:101DB000D1F74A0F5B1F6E1F7F1FDB01CA0131E0A5
:101DC000880F991FAA1FBB1F3A95D1F7BC01CD01FF
:101DD000620F711D811D911D08950F931F93CF9365
:101DE000DF938C01C8010E945316EC0197FD08C0D7
:101DF0000E941816892BB1F7B801CE010E94021774
:101E0000CE01DF91CF911F910F910895A0E0B0E036
:101E1000ECE0FFE00C942914B82E892E8B01942E4F
:101E2000A52ED22F0E945316FC019927EB3219F0F0
:101E30008D9789F4D0680150104031F480E0CDB71F
:101E4000DEB7ECE00C9445148B2D982D0E945316B0
:101E5000FC0197FDF3CFCD2FCD7F8D2F80738111A6
:101E600032C0E03381F5680181E0C81AD10839F049
:101E70008B2D982D0E945316FC0197FF16C0C12C84
:101E8000D12C7601C7FF08C0F094E094D094C094A0
:101E9000C11CD11CE11CF11C2C2FB701A601892DFE
:101EA0009A2D0E94B60E81E0CACF8F7D883529F524
:101EB000C2640250104019F38B2D982D0E945316C6
:101EC000FC0197FDDCCFC12CD12C760120ED2E0F2B
:101ED0002830D8F0C4FD09C02A30B8F0C6FF05C0CC
:101EE0002F7D8FEE820F863078F06B2D782DCF010D
:101EF0000E940217C1FDC6CFA1CFD6FF03C0C260AA
:101F00008601E1CFC261FCCF27504C2FC701B6013B
:101F10000E94C40E6B017C01C2600150104009F4A4
:101F2000B1CF8B2D982D0E945316FC0197FFCECF79
:101F3000E1CF4F925F927F928F929F92AF92BF922A
:101F4000CF92DF92EF92FF920F931F93CF93DF9385
:101F5000CDB7DEB7A0970FB6F894DEBF0FBECDBFEA
:101F60005C016B017A01CE0101964C0180E2F40123
:101F700011928A95E9F7F5017380890140E050E0FC
:101F8000B0E020E0A0E061E070E0F80173FC959122
:101F900073FE9191892F8F01911119C000E010E01B
:101FA000C801A0960FB6F894DEBF0FBECDBFDF917B
:101FB000CF911F910F91FF90EF90DF90CF90BF9046
:101FC000AF909F908F907F905F904F9008959E3537
:101FD00019F44115510539F1A4171506F4F49D358E
:101FE00051F19D32D1F4211511F1E82FE695E695D6
:101FF000E695E80DF92DF11D282F27702B0102C061
:10200000440C551C2A95E2F79081942990838B17F4
:1020100081F08B1730F48F5FE8CF2111E6CFB92F15
:10202000E4CF8150E2CFA1E04F5F5F4FAECF21E020
:10203000FBCF20E0F9CF211519F08E8180628E83CD
:10204000A11561F0F4019E012F5D3F4F8081DF01FA
:10205000319680958C93E217F307C1F77724739438
:10206000C5010E94531697FD16C0E82FE695E69528
:10207000E695E80DF92DF11D208130E0AC014770A7
:10208000552702C0359527954A95E2F720FD06C0F1
:10209000B5010E940217711471F080CFE114F104B0
:1020A00019F0F70181937F0181E0C81AD108712CE2
:1020B000C114D104A9F6E114F10409F471CFF701B8
:1020C00010826ECFA6E0B0E0E8E6F0E10C942414B4
:1020D000C82E392E8B014A010E9453168D839E8390
:1020E0008D819E8199272D812B3269F08D9709F082
:1020F000D1C090E8B92E0150104039F480E0269606
:10210000E1E10C944014B12CF6CF8C2D932D0E945C
:1021100053168D839E838D819E8197FDEFCF8D8198
:102120009E810E9421168936910509F4DFC08E3602
:10213000910509F4F6C0412C512C3201E12CF12C0F
:102140002D812053DB2C2A3008F00BC16894D1F884
:102150008B2D8870B2FEECC0811103C0FFEFEF1A27
:10216000FF0A0150104051F08C2D932D0E94531600
:102170008D839E838D819E8197FFD8C0D1FEBECF77
:102180008D818F7D853409F056C0580191E0A91AE0
:10219000B10809F4B3CF8C2D932D0E9453168D8373
:1021A0009E83ED81FE81F7FDA9CFCF019927EB3208
:1021B00021F08D9771F46894D4F85801F2E0AF1AC9
:1021C000B10809F49BCF8C2D932D0E9453168D835B
:1021D0009E838D819E810E941116892B09F48ECFDA
:1021E00000E010E0B801110F880B990B2D812053EE
:1021F00040E20E94C40E69837A838B839C830981A9
:102200001A8121E0A21AB10861F08C2D932D0E9451
:1022100053168D839E838D819E810E941116892B7A
:1022200009F7D4FE05C009811A811195019511099C
:10223000E00EF11E8501012B41F08D819E8197FDFD
:1022400004C06C2D732D0E940217C301B2010E94BD
:10225000E5129B01AC01F7FE8CC0F194E194F1080A
:10226000E3E1F0E3FA83E983A980BA8098E1A91A4F
:10227000B10800E210E0E981FA81E016F10608F009
:102280007DC03497FA83E98316950795EA15FB0517
:1022900091F724C0B12C43CFE981FA81E017F1070F
:1022A00081F08C2D932D0E9453169C0197FD09C03F
:1022B0000E942116F81611F16C2D732DC9010E9490
:1022C000021789819A8180509F4209F017CF80E0E0
:1022D00090E0A0E8BFE79C01AD01DB2CD7FC505893
:1022E0008114910409F055C081E009CF8DEF9EE281
:1022F0009A83898389819A81080F191FE981FA815C
:102300003196FA83E9833197F490F110C5CF898132
:102310009A818D5F9E42D9F680E090E0A0ECBFE705
:10232000DACFEAEFFEE2FA83E983E4CFBD2C08CFEF
:10233000811519F081E0E81AF10840E2C301B20109
:102340000E94C40E2B013C0198E9491699E95906EF
:10235000690699E1790608F404CFEB2DE660DE2EDC
:1023600000CF2E3F09F00ACFB3FC08CF6894D3F812
:10237000F8CE8BE290E39A83898376CF659175914D
:10238000859195910E9422139B01AC01E01AF10AFC
:1023900072CFF4012083318342835383A5CFA0E021
:1023A000B0E0E5EDF1E10C9428145C01EB01842E22
:1023B000752EFC0117821682912CF501F380FE0127
:1023C000F3FC0591F3FE0191EF010115F1F0802F6F
:1023D00090E00E941816892B21F0C5010E94ED0E95
:1023E000ECCF053241F4FE01F3FC1591F3FE11919F
:1023F000EF01153269F4C5010E94531697FD91C093
:102400000817D9F2B5010E940217892D90E08DC0FE
:1024100000E01A3231F4F3FC1591F3FE1191EF0153
:1024200001E0C12CD12C20ED210F2A3050F101FF09
:1024300037C0C114D10449F31836B1F11C3609F480
:102440003DC0111511F3612F70E080E790E00E940C
:102450002916892BD1F2E12CF12C00FD06C0E82DC4
:10246000F72DE190F1908E2E7F2E1E3679F5F50135
:102470004681578160E070E0202FC7010E94B60EB0
:102480009CCF0260B60180E090E040E20E94C40E62
:102490006B01FE01F3FC1591F3FE1191EF01C3CF27
:1024A000CC24CA94DC2CC8CFFE01F3FC1591F3FEBA
:1024B0001191EF01183609F0C4CF08600460FE01E5
:1024C000F3FC1591F3FE1191EF01BBCF1336C1F46C
:1024D00001FD03C0CC24C394D12CC5010E94531626
:1024E00097FD1FC0E114F10419F0F70181937F01FA
:1024F000F1E0CF1AD10889F700FD5FCF93945DCF4B
:102500001B35C1F49E01A701B601C5010E94990FB8
:10251000EC01892B89F7F50183818073811509F41A
:1025200074CF8FEF9FEF911070CFCDB7DEB7EDE096
:102530000C944414C5010E94ED0E97FDF2CF1F3696
:1025400009F441C068F4193689F020F4183569F0AF
:102550001436B9F1A701B601C5010E9462100CC082
:102560001337D1F058F41037A9F70064202FA701D2
:10257000B601C5010E94060F8115CCCF153709F1B0
:102580001837F2CFE114F10419F0F70121937F011C
:10259000F1E0CF1AD10871F0C5010E9453169C01D9
:1025A00097FD08C00E941816892B61F3B501C90177
:1025B0000E940217E114F10409F49ECFF701108282
:1025C0009BCF0062D3CF0061D1CFE89409C097FBC5
:1025D0003EF490958095709561957F4F8F4F9F4FFA
:1025E0009923A9F0F92F96E9BB279395F69587953E
:1025F00077956795B795F111F8CFFAF4BB0F11F401
:1026000060FF1BC06F5F7F4F8F4F9F4F16C08823A7
:1026100011F096E911C0772321F09EE8872F762FDD
:1026200005C0662371F096E8862F70E060E02AF01E
:102630009A95660F771F881FDAF7880F969587950A
:1026400097F908950E9435130C94A6130E949813CD
:1026500038F00E949F1320F0952311F00C948F13F3
:102660000C94951311240C94DA130E94B71370F391
:10267000959FC1F3950F50E0551F629FF001729F27
:10268000BB27F00DB11D639FAA27F00DB11DAA1F36
:10269000649F6627B00DA11D661F829F2227B00D83
:1026A000A11D621F739FB00DA11D621F839FA00D0E
:1026B000611D221F749F3327A00D611D231F849F5E
:1026C000600D211D822F762F6A2F11249F575040B5
:1026D0009AF0F1F088234AF0EE0FFF1FBB1F661F30
:1026E000771F881F91505040A9F79E3F510580F0F9
:1026F0000C948F130C94DA135F3FE4F3983ED4F3F9
:10270000869577956795B795F795E7959F5FC1F79C
:10271000FE2B880F911D9695879597F9089597F947
:102720009F6780E870E060E008959FEF80EC089577
:1027300000240A94161617061806090608950024A0
:102740000A9412161306140605060895092E03941A
:10275000000C11F4882352F0BB0F40F4BF2B11F48E
:1027600060FF04C06F5F7F4F8F4F9F4F089557FDED
:102770009058440F551F59F05F3F71F04795880FEF
:1027800097FB991F61F09F3F79F087950895121686
:1027900013061406551FF2CF4695F1DF08C0161632
:1027A00017061806991FF1CF8695710561050894E3
:1027B0000895E894BB2766277727CB0197F90895FA
:1027C0000E9460000E94F20A0E94FC0A0E94140B00
:1027D0000E94E60A5C985D98529853980E947E0188
:1027E0000E94A20480E090E00895AA1BBB1B51E167
:1027F00007C0AA1FBB1FA617B70710F0A61BB70B71
:10280000881F991F5A95A9F780959095BC01CD0115
:10281000089597FB072E16F4009407D077FD09D092
:102820000E94F51307FC05D03EF4909581959F4FCB
:102830000895709561957F4F0895EE0FFF1F0590E5
:10284000F491E02D09942F923F924F925F926F92F4
:102850007F928F929F92AF92BF92CF92DF92EF9230
:10286000FF920F931F93CF93DF93CDB7DEB7CA1BB1
:10287000DB0B0FB6F894DEBF0FBECDBF09942A88DC
:10288000398848885F846E847D848C849B84AA8484
:10289000B984C884DF80EE80FD800C811B81AA8111
:1028A000B981CE0FD11D0FB6F894DEBF0FBECDBFDC
:1028B000ED0108955058BB27AA270E9472140C946A
:1028C000A6130E94981338F00E949F1320F039F449
:1028D0009F3F19F426F40C9495130EF4E095E7FB52
:1028E0000C948F13E92F0E94B71358F3BA1762079D
:1028F00073078407950720F079F4A6F50C94D91393
:102900000EF4E0950B2EBA2FA02D0B01B90190010A
:102910000C01CA01A0011124FF27591B99F0593F4E
:1029200050F4503E68F11A16F040A22F232F342F96
:102930004427585FF3CF469537952795A795F040E4
:102940005395C9F77EF41F16BA0B620B730B840BF9
:10295000BAF09150A1F0FF0FBB1F661F771F881FB1
:10296000C2F70EC0BA0F621F731F841F48F4879509
:1029700077956795B795F7959E3F08F0B0CF9395FB
:10298000880F08F09927EE0F9795879508950E9474
:10299000DB140C94A6130E949F1358F00E94981306
:1029A00040F029F45F3F29F00C948F1351110C94DF
:1029B000DA130C9495130E94B71368F39923B1F3BB
:1029C000552391F3951B550BBB27AA276217730755
:1029D000840738F09F5F5F4F220F331F441FAA1FE9
:1029E000A9F335D00E2E3AF0E0E832D091505040A5
:1029F000E695001CCAF72BD0FE2F29D0660F771F53
:102A0000881FBB1F261737074807AB07B0E809F038
:102A1000BB0B802DBF01FF2793585F4F3AF09E3FBD
:102A2000510578F00C948F130C94DA135F3FE4F3A4
:102A3000983ED4F3869577956795B795F7959F5F00
:102A4000C9F7880F911D9695879597F90895E1E04C
:102A5000660F771F881FBB1F621773078407BA07AB
:102A600020F0621B730B840BBA0BEE1F88F7E09506
:102A70000895283008F027E03327DA01990F311D37
:102A800087FD916000966105710539F432602E5F13
:102A90003D9330E32A95E1F708959F3F30F0803869
:102AA0007105610509F03C5F3C5F3D93913008F092
:102AB0008068911DDF93CF931F930F93FF92EF9246
:102AC000192F987F9695E92F96959695E90FFF27F0
:102AD000E15AF04D99273327EE24FF24A701E7019F
:102AE00005900894079428F4360FE71EF81E491F36
:102AF000511D660F771F881F991F0694A1F7059037
:102B0000079428F4E70EF81E491F561FC11D770FC2
:102B1000881F991F661F0694A1F70590079428F453
:102B2000F80E491F561FC71FD11D880F991F661F1A
:102B3000771F0694A1F70590079420F4490F561FBC
:102B4000C71FD81F990F661F771F881F0694A9F704
:102B500084911095177041F0D695C7955795479574
:102B6000F794E7941A95C1F7E5E0FFE268941590B1
:102B7000159135916591959105907FE27395E118D6
:102B8000F10A430B560BC90BD009C0F7E10CF11E3B
:102B9000431F561FC91FD01D7EF4703311F48A9550
:102BA000E6CFE894015030F0080F0AF4002702172E
:102BB00008F4202F2395022F7A3328F079E37D93B0
:102BC0002A95E9F710C07D932A9589F60694979582
:102BD0006795379517951794E118F10A430B560B33
:102BE000C90BD00998F023957E9173957A3308F03C
:102BF00070E37C932013B8F77E9170617D9330F081
:102C0000839571E37D9370E32A95E1F71124EF90AA
:102C1000FF900F911F91CF91DF91992787FD90959C
:102C2000089591110C94781780538A50D8F708951D
:102C300091110C947817803219F089508550C8F79B
:102C400008959111089581548A5108F4805E855A3F
:102C50000895FC010590061621F00020D9F7C00167
:102C600008953197CF010895FC010590615070409F
:102C70000110D8F7809590958E0F9F1F0895FB0146
:102C8000DC010C94431601900D920020E1F70895A9
:102C9000FC016150704001900110D8F7809590952B
:102CA0008E0F9F1F0895CF93DF93EC018B8180FFE0
:102CB0001BC086FF0CC08F7B8B838E819F8101960A
:102CC0009F838E838A8190E0DF91CF91089582FF68
:102CD00019C0E881F9819081292F092E000C330B4E
:102CE000911105C080628B838FEF9FEFEDCF3196FE
:102CF000F983E8838E819F8101969F838E83C9012A
:102D00009927E2CFEA85FB85CE0109959C0197FFC3
:102D1000F1CF8B812F3F3F4F19F490E1892BE3CF07
:102D200090E2FCCF0F931F93CF93DF93182F092FBF
:102D3000EB018B8181FD09C01FEF0FEF812F902FD9
:102D4000DF91CF911F910F91089582FF14C02E81C2
:102D50003F818C819D81281739073CF4E881F981F6
:102D6000CF0101969983888310838E819F8101967C
:102D70009F838E83E3CFE885F985812F0995892B81
:102D8000A1F3DACFAEE0B0E0E8ECF6E10C94311458
:102D90000D891E8986E08C831A8309838FEF9FE754
:102DA0009E838D83AE01475E5F4F6F89788DCE0124
:102DB00001960E94240B2F813885020F131FF80102
:102DC00010822E96E4E00C944D14AEE0B0E0EBEEF1
:102DD000F6E10C9431148C0186E08C831A8309830C
:102DE0008FEF9FE79E838D83CE0101960E94240B77
:102DF0002F813885020F131FF80110822E96E4E010
:102E00000C944D14FB01238120FF11C026FD0FC03F
:102E10008F3F980771F082832F7D20642383268162
:102E200037812150310937832683992708958FEF01
:102E30009FEF0895FA01AA27283051F1203181F13E
:102E4000E8946F936E7F6E5F7F4F8F4F9F4FAF4FB2
:102E5000B1E03ED0B4E03CD0670F781F891F9A1FC5
:102E6000A11D680F791F8A1F911DA11D6A0F711D79
:102E7000811D911DA11D20D009F468943F912AE085
:102E8000269F11243019305D3193DEF6CF0108956D
:102E9000462F4770405D4193B3E00FD0C9F7F6CF9E
:102EA000462F4F70405D4A3318F0495D31FD405266
:102EB000419302D0A9F7EACFB4E0A69597958795FC
:102EC00077956795BA95C9F70097610571050895DB
:102ED0009B01AC010A2E0694579547953795279587
:102EE000BA95C9F7620F731F841F951FA01D08951F
:102EF000992788270895F894FFCF616E006E666960
:102F00006E6974790000407A10F35A00A0724E186E
:102F1000090010A5D4E80000E87648170000E40B8B
:102F200054020000CA9A3B000000E1F50500008051
:102F3000969800000040420F000000A086010000AB
:102F400000102700000000E80300000000640000FB
:102F50000000000A00000000000100000000002C3A
:102F600076D888DC674F0823DFC1DFAE59E1B1B7FF
:102F700096E5E3E453C63AE651997696E8E6C284CC
:102F800026EB898C9B62ED407C6FFCEFBC9C9F40E4
:102F9000F2BAA56FA5F490055A2AF75C936B6CF909
:102FA000676DC11BFCE0E40D47FEF520E6B500D0DF
:102FB000ED902E0300943577050080841E080000F4
:102FC000204E0A000000C80C333333330F986E12C2
:102FD000831141EF8D2114893BE65516CFFEE6DBC8
:102FE00018D1844B381BF77C1D901DA4BBE4242012
:102FF0003284725E228100C9F124ECA1E53D27CD27
:10300000CCCC3D0AD7233C17B7D13877CC2B32959F
:1030100095E6241FB14F0A000020410000C842007D
:10302000401C4620BCBE4CCA1B0E5AAEC59D740047
:103030002207250773077F0756086B084C054C05C8
:10304000C4084C054C054C054C054C054C054C057D
:10305000EE08F607E8076F0577057C058105900502
:0A306000940586058A0552069A05BC
:10306A00DD01EB01FB010B021B02260233024402C3
:10307A0055026902770283029102010270726F6738
:10308A0072616D20697320726561647921006572CD
:10309A006173655061676500777269746550617222
:1030AA00616D657465724279416464726573732EE9
:1030BA00204164647248203D2025643B20416464B9
:1030CA00724C203D202564007772697465466C61F4
:1030DA007368426C6F636B2E204164647248203DB2
:1030EA002025643B20416464724C203D2025640005
:1030FA0052656164696E6720424C48656C6920704C
:10310A006172616D65746572732E2E2E0025733A95
:10311A0020307825303258202825642900466169F4
:10312A006C656420746F2072656164202573008069
:10313A008182838485868788898A8B8C005374610F
:10314A007274757020506F7765720054656D7020C7
:10315A0050726F74656374696F6E004C6F7720529A
:10316A00504D2050726F74656374004D6F746F72A6
:10317A0020446972656374696F6E0044656D6167A6
:10318A0020436F6D70004D6F746F722054696D69C2
:10319A006E670050504D204D696E205468726F74EE
:1031AA00746C650050504D204D6178205468726FE0
:1031BA0074746C650050504D2043656E74657220BE
:1031CA005468726F74746C65004272616B65204F4B
:1031DA006E2053746F70004265657020566F6C756F
:1031EA006D6500426561636F6E20566F6C756D6523
:1031FA0000426561636F6E2044656C617900737487
:10320A00617274206C6F6F70210043484F4F5345B1
:10321A005F4D4F544F525F310043484F4F53455F04
:10322A004D4F544F525F320043484F4F53455F4D05
:10323A004F544F525F330043484F4F53455F4D4FF2
:10324A00544F525F3400454E41424C455F505752ED
:10325A005F434845434B0044495341424C455F5004
:10326A0057525F434845434B00454E41424C455FE8
:10327A005057520044495341424C455F50575200FF
:10328A0053544152545F43555252454E545F43483A
:10329A0045434B00493D252E326600535441525452
:1032AA005F5057525F434845434B0041434B0049E7
:1032BA004E495400494E4954204641494C454421FF
:1032CA000063325F6465766963652E69643A202516
:1032DA00640063325F6465766963652E7265766938
:1032EA0073696F6E3A20256400524553455400575E
:1032FA005249544500637263203D2025642C206E98
:10330A006577637263203D202564004641494C4538
:10331A0044212063726320213D206E6577637263C6
:10332A00007772697465466C617368426C6F636B8F
:10333A00204641494C4544210057524954452042B0
:10334A006C6F636B205375636365737300455241F9
:10335A0053455F5041474500657261736550616727
:10336A0065204641494C45442100657261736550A8
:10337A006167652053554343455353005752495497
:10338A00455F5041474500577269746550617261E3
:10339A006D6574657242794164647265737320461F
:1033AA0041494C4544210057726974655061726104
:1033BA006D657465724279416464726573732053F2
:1033CA0075636365737300455241534500657261C5
:1033DA00697365204641494C45442100657261691B
:1033EA0073652053554343455353005245414400A6
:1033FA0072656164466C617368426C6F636B2046E8
:10340A0041494C4544210072656164466C617368A8
:10341A00426C6F636B20535543434553532E2041EF
:10342A00646472203D202564000D0A00494E464F0F
:10343A00006465766963652E6964203D2025640011
:10344A006465766963652E7265766973696F6E2045
:10345A003D20256400524541445F504152414D533D
:10346A00005365745F456E67696E655F3100746805
:10347A00726F74746C653D2564005365745F456EA4
:10348A0067696E655F32005365745F456E67696E82
:10349A00655F33005365745F456E67696E655F34B7
:1034AA000043616C6962726174696F6E0043616C9A
:1034BA006962726174696F6E20446F6E6500255887
:1034CA002C2025582C2025582C2025582C202558CE
:0A34DA000044454641554C540000E3
:00000001FF
